:020000040000FA
:020000002128B5
:040002000034003492
:08000800A000030E8312A10009
:100010000B191628261810280509203885008F018D
:100020000B10210E8300A00E200E09000B11851E5F
:10003000112826148512C830A800A700C330A900D3
:02004000112885
:0E00420083128B13023085000730990083165D
:1000500071308F00831280309F00831659309F00CB
:1000600019308500873081008C010830960083129A
:100070005520A701A6012830A8000430A9008E0150
:100080008F01313090008101A8308B003B300F028E
:10009000031851202908010203186220851E5520EB
:1000A000462885128F018E0108008D309F008D201B
:1000B0009F149F1859281E08A20083161E08831239
:1000C000A30008002908810281309F008D209F1421
:1000D0009F1868281E082202031D722883161E0816
:1000E00083122302031C7F28A708031D7D282610E6
:1000F0002830A8000430A9000800A7030800280839
:100100002702031C8B2826148512C830A800A700DC
:10011000C330A9000800A70A080000000000000082
:0401200000000800D3
:02400E00D430AC
:00000001FF
