:020000040000FA
:020000002028B6
:040002000034003492
:08000800A000030E8312A10009
:100010000B191628261810280509203885008F018D
:100020000B10210E8300A00E200E0900851E112842
:10003000261485126430A800A700C330A900112837
:1000400083128B13023085000730990080309F00A7
:10005000831619309F0019308500873081008C018C
:100060000830960083125020A701A6011430A80082
:100070000430A9008E018F01313090008101A83039
:100080008B001E300F0203184C20290801020318B0
:100090005C20851E5020412885128F018E010800AA
:1000A0008D309F009F149F1853281E08A2008316AE
:1000B0001E08A300831208002908810281309F00D6
:1000C0009F149F1861281E082202031C782883169B
:1000D0001E0883122302031C7828A708031D762814
:1000E00026101430A8000430A9000800A703080057
:1000F00028082702031C8428261485126430A800CF
:0C010000A700C330A9000800A70A0800EF
:02400E00943FDD
:00000001FF
